{
  "contractName": "SimpleBank",
  "abi": [
    {
      "inputs": [],
      "name": "balance",
      "outputs": [
        {
          "internalType": "uint256",
          "name": "",
          "type": "uint256"
        }
      ],
      "stateMutability": "view",
      "type": "function"
    },
    {
      "inputs": [
        {
          "internalType": "uint256",
          "name": "amount",
          "type": "uint256"
        }
      ],
      "name": "deposit",
      "outputs": [],
      "stateMutability": "nonpayable",
      "type": "function"
    },
    {
      "inputs": [
        {
          "internalType": "uint256",
          "name": "amount",
          "type": "uint256"
        }
      ],
      "name": "withdraw",
      "outputs": [],
      "stateMutability": "nonpayable",
      "type": "function"
    }
  ],
  "bytecode": "0x608060405234801561001057600080fd5b506102f9806100206000396000f3fe608060405234801561001057600080fd5b50600436106100415760003560e01c80632e1a7d4d14610046578063b69ef8a814610062578063b6b55f2514610080575b600080fd5b610060600480360381019061005b9190610158565b61009c565b005b61006a6100fc565b6040516100779190610194565b60405180910390f35b61009a60048036038101906100959190610158565b610102565b005b6000548111156100e1576040517f08c379a00000000000000000000000000000000000000000000000000000000081526004016100d89061020c565b60405180910390fd5b806000808282546100f2919061025b565b9250508190555050565b60005481565b80600080828254610113919061028f565b9250508190555050565b600080fd5b6000819050919050565b61013581610122565b811461014057600080fd5b50565b6000813590506101528161012c565b92915050565b60006020828403121561016e5761016d61011d565b5b600061017c84828501610143565b91505092915050565b61018e81610122565b82525050565b60006020820190506101a96000830184610185565b92915050565b600082825260208201905092915050565b7f496e73756666696369656e742062616c616e6365000000000000000000000000600082015250565b60006101f66014836101af565b9150610201826101c0565b602082019050919050565b60006020820190508181036000830152610225816101e9565b9050919050565b7f4e487b7100000000000000000000000000000000000000000000000000000000600052601160045260246000fd5b600061026682610122565b915061027183610122565b92508282039050818111156102895761028861022c565b5b92915050565b600061029a82610122565b91506102a583610122565b92508282019050808211156102bd576102bc61022c565b5b9291505056fea2646970667358221220b5dcca8c5b08707f35326ec0d9a1bebf1b3be8cead7b479a7fcb52ccfa9593ee64736f6c63430008130033",
  "immutableReferences": {},
  "source": "// SPDX-License-Identifier: MIT\r\npragma solidity ^0.8.19;\r\n\r\n// Declare the smart contract\r\ncontract SimpleBank {\r\n    // Declare a variable to store the balance of the account\r\n    uint public balance;  //updated the balance\r\n\r\n    // Define a function to deposit funds into the account\r\n    function deposit(uint amount) public {\r\n        balance += amount;\r\n    }\r\n\r\n    // Define a function to withdraw funds from the account\r\n    function withdraw(uint amount) public {\r\n        require(amount <= balance, \"Insufficient balance\");\r\n        balance -= amount;\r\n    }\r\n}\r\n",
  "sourcePath": "D:\\Sandbox\\srihari-mytril\\contracts\\dummy.sol",
  "compiler": {
    "name": "solc",
    "version": "0.8.19+commit.7dd6d404.Emscripten.clang"
  },
  "schemaVersion": "3.4.13",
  "updatedAt": "2023-05-06T06:09:11.012Z",
  "devdoc": {
    "kind": "dev",
    "methods": {},
    "version": 1
  },
  "userdoc": {
    "kind": "user",
    "methods": {},
    "version": 1
  }
}